{
  "contractName": "OwnedUpgradeabilityProxy",
  "abi": [
    {
      "constant": true,
      "inputs": [],
      "name": "proxyType",
      "outputs": [
        {
          "name": "proxyTypeId",
          "type": "uint256"
        }
      ],
      "payable": false,
      "stateMutability": "pure",
      "type": "function"
    },
    {
      "constant": true,
      "inputs": [],
      "name": "implementation",
      "outputs": [
        {
          "name": "",
          "type": "address"
        }
      ],
      "payable": false,
      "stateMutability": "view",
      "type": "function"
    },
    {
      "constant": true,
      "inputs": [],
      "name": "upgradeabilityOwner",
      "outputs": [
        {
          "name": "",
          "type": "address"
        }
      ],
      "payable": false,
      "stateMutability": "view",
      "type": "function"
    },
    {
      "payable": true,
      "stateMutability": "payable",
      "type": "fallback"
    },
    {
      "anonymous": false,
      "inputs": [
        {
          "indexed": false,
          "name": "previousOwner",
          "type": "address"
        },
        {
          "indexed": false,
          "name": "newOwner",
          "type": "address"
        }
      ],
      "name": "ProxyOwnershipTransferred",
      "type": "event"
    },
    {
      "anonymous": false,
      "inputs": [
        {
          "indexed": true,
          "name": "implementation",
          "type": "address"
        }
      ],
      "name": "Upgraded",
      "type": "event"
    },
    {
      "constant": true,
      "inputs": [],
      "name": "proxyOwner",
      "outputs": [
        {
          "name": "",
          "type": "address"
        }
      ],
      "payable": false,
      "stateMutability": "view",
      "type": "function"
    },
    {
      "constant": false,
      "inputs": [
        {
          "name": "newOwner",
          "type": "address"
        }
      ],
      "name": "transferProxyOwnership",
      "outputs": [],
      "payable": false,
      "stateMutability": "nonpayable",
      "type": "function"
    },
    {
      "constant": false,
      "inputs": [
        {
          "name": "implementation",
          "type": "address"
        }
      ],
      "name": "upgradeTo",
      "outputs": [],
      "payable": false,
      "stateMutability": "nonpayable",
      "type": "function"
    },
    {
      "constant": false,
      "inputs": [
        {
          "name": "implementation",
          "type": "address"
        },
        {
          "name": "data",
          "type": "bytes"
        }
      ],
      "name": "upgradeToAndCall",
      "outputs": [],
      "payable": true,
      "stateMutability": "payable",
      "type": "function"
    }
  ],
  "bytecode": "0x608060405234801561001057600080fd5b5061045c806100206000396000f3006080604052600436106100825763ffffffff7c0100000000000000000000000000000000000000000000000000000000600035041663025313a281146100c85780633659cfe6146100f95780634555d5c91461011c5780634f1ef286146101435780635c60da1b1461019d5780636fde8202146101b2578063f1739cae146101c7575b600061008c6101e8565b9050600160a060020a03811615156100a357600080fd5b60405136600082376000803683855af43d806000843e8180156100c4578184f35b8184fd5b3480156100d457600080fd5b506100dd6101f7565b60408051600160a060020a039092168252519081900360200190f35b34801561010557600080fd5b5061011a600160a060020a0360043516610206565b005b34801561012857600080fd5b50610131610239565b60408051918252519081900360200190f35b60408051602060046024803582810135601f810185900485028601850190965285855261011a958335600160a060020a031695369560449491939091019190819084018382808284375094975061023e9650505050505050565b3480156101a957600080fd5b506100dd6101e8565b3480156101be57600080fd5b506100dd6102f2565b3480156101d357600080fd5b5061011a600160a060020a0360043516610301565b600054600160a060020a031690565b60006102016102f2565b905090565b61020e6101f7565b600160a060020a031633600160a060020a031614151561022d57600080fd5b61023681610391565b50565b600290565b6102466101f7565b600160a060020a031633600160a060020a031614151561026557600080fd5b61026e82610206565b30600160a060020a03168160405180828051906020019080838360005b838110156102a357818101518382015260200161028b565b50505050905090810190601f1680156102d05780820380516001836020036101000a031916815260200191505b50915050600060405180830381855af491505015156102ee57600080fd5b5050565b600154600160a060020a031690565b6103096101f7565b600160a060020a031633600160a060020a031614151561032857600080fd5b600160a060020a038116151561033d57600080fd5b7f5a3e66efaa1e445ebd894728a69d6959842ea1e97bd79b892797106e270efcd96103666101f7565b60408051600160a060020a03928316815291841660208301528051918290030190a161023681610401565b600054600160a060020a03828116911614156103ac57600080fd5b6000805473ffffffffffffffffffffffffffffffffffffffff1916600160a060020a038316908117825560405190917fbc7cd75a20ee27fd9adebab32041f755214dbc6bffa90cc0225b39da2e5c2d3b91a250565b6001805473ffffffffffffffffffffffffffffffffffffffff1916600160a060020a03929092169190911790555600a165627a7a72305820adcbf8052922e713be4a94feb616566d2fa50a1d34409a81648a4f53aac449c10029",
  "source": "pragma solidity 0.4.23;\n\nimport './Proxy.sol';\nimport './OwnedUpgradeabilityStorage.sol';\n\n/**\n * @title OwnedUpgradeabilityProxy\n * @dev This contract combines an upgradeability proxy with basic authorization control functionalities\n */\ncontract OwnedUpgradeabilityProxy is Proxy, OwnedUpgradeabilityStorage {\n  /**\n  * @dev Event to show ownership has been transferred\n  * @param previousOwner representing the address of the previous owner\n  * @param newOwner representing the address of the new owner\n  */\n  event ProxyOwnershipTransferred(address previousOwner, address newOwner);\n\n  /**\n  * @dev This event will be emitted every time the implementation gets upgraded\n  * @param implementation representing the address of the upgraded implementation\n  */\n  event Upgraded(address indexed implementation);\n\n  /**\n  * @dev Upgrades the implementation address\n  * @param implementation representing the address of the new implementation to be set\n  */\n  function _upgradeTo(address implementation) internal {\n    require(_implementation != implementation);\n    _implementation = implementation;\n    emit Upgraded(implementation);\n  }\n\n  /**\n  * @dev Throws if called by any account other than the owner.\n  */\n  modifier onlyProxyOwner() {\n    require(msg.sender == proxyOwner());\n    _;\n  }\n\n  /**\n   * @dev Tells the address of the proxy owner\n   * @return the address of the proxy owner\n   */\n  function proxyOwner() public view returns (address) {\n    return upgradeabilityOwner();\n  }\n\n  /**\n   * @dev Allows the current owner to transfer control of the contract to a newOwner.\n   * @param newOwner The address to transfer ownership to.\n   */\n  function transferProxyOwnership(address newOwner) public onlyProxyOwner {\n    require(newOwner != address(0));\n    emit ProxyOwnershipTransferred(proxyOwner(), newOwner);\n    setUpgradeabilityOwner(newOwner);\n  }\n\n  /**\n   * @dev Allows the upgradeability owner to upgrade the current implementation of the proxy.\n   * @param implementation representing the address of the new implementation to be set.\n   */\n  function upgradeTo(address implementation) public onlyProxyOwner {\n    _upgradeTo(implementation);\n  }\n\n  /**\n   * @dev Allows the upgradeability owner to upgrade the current implementation of the proxy\n   * and delegatecall the new implementation for initialization.\n   * @param implementation representing the address of the new implementation to be set.\n   * @param data represents the msg.data to bet sent in the low level call. This parameter may include the function\n   * signature of the implementation to be called with the needed payload\n   */\n  function upgradeToAndCall(address implementation, bytes data) payable public onlyProxyOwner {\n    upgradeTo(implementation);\n    require(address(this).delegatecall(data));\n  }\n}\n",
  "sourcePath": "/home/ylgr/TestProject/wyvern-ethereum/contracts/registry/proxy/OwnedUpgradeabilityProxy.sol",
  "compiler": {
    "name": "solc",
    "version": "0.4.23+commit.124ca40d.Emscripten.clang"
  },
  "schemaVersion": "2.0.0",
  "updatedAt": "2022-03-18T08:56:47.088Z"
}